{
  "_format": "hh-sol-artifact-1",
  "contractName": "BFloFingerprintUpgradeable",
  "sourceName": "contracts/BFloFingerprintUpgradeable.sol",
  "abi": [
    {
      "inputs": [],
      "stateMutability": "nonpayable",
      "type": "constructor"
    },
    {
      "anonymous": false,
      "inputs": [
        {
          "indexed": false,
          "internalType": "address",
          "name": "previousAdmin",
          "type": "address"
        },
        {
          "indexed": false,
          "internalType": "address",
          "name": "newAdmin",
          "type": "address"
        }
      ],
      "name": "AdminChanged",
      "type": "event"
    },
    {
      "anonymous": false,
      "inputs": [
        {
          "indexed": true,
          "internalType": "address",
          "name": "owner",
          "type": "address"
        },
        {
          "indexed": true,
          "internalType": "address",
          "name": "approved",
          "type": "address"
        },
        {
          "indexed": true,
          "internalType": "uint256",
          "name": "tokenId",
          "type": "uint256"
        }
      ],
      "name": "Approval",
      "type": "event"
    },
    {
      "anonymous": false,
      "inputs": [
        {
          "indexed": true,
          "internalType": "address",
          "name": "owner",
          "type": "address"
        },
        {
          "indexed": true,
          "internalType": "address",
          "name": "operator",
          "type": "address"
        },
        {
          "indexed": false,
          "internalType": "bool",
          "name": "approved",
          "type": "bool"
        }
      ],
      "name": "ApprovalForAll",
      "type": "event"
    },
    {
      "anonymous": false,
      "inputs": [
        {
          "indexed": true,
          "internalType": "address",
          "name": "beacon",
          "type": "address"
        }
      ],
      "name": "BeaconUpgraded",
      "type": "event"
    },
    {
      "anonymous": false,
      "inputs": [
        {
          "indexed": false,
          "internalType": "uint8",
          "name": "version",
          "type": "uint8"
        }
      ],
      "name": "Initialized",
      "type": "event"
    },
    {
      "anonymous": false,
      "inputs": [
        {
          "indexed": false,
          "internalType": "address",
          "name": "account",
          "type": "address"
        }
      ],
      "name": "Paused",
      "type": "event"
    },
    {
      "anonymous": false,
      "inputs": [
        {
          "indexed": true,
          "internalType": "bytes32",
          "name": "role",
          "type": "bytes32"
        },
        {
          "indexed": true,
          "internalType": "bytes32",
          "name": "previousAdminRole",
          "type": "bytes32"
        },
        {
          "indexed": true,
          "internalType": "bytes32",
          "name": "newAdminRole",
          "type": "bytes32"
        }
      ],
      "name": "RoleAdminChanged",
      "type": "event"
    },
    {
      "anonymous": false,
      "inputs": [
        {
          "indexed": true,
          "internalType": "bytes32",
          "name": "role",
          "type": "bytes32"
        },
        {
          "indexed": true,
          "internalType": "address",
          "name": "account",
          "type": "address"
        },
        {
          "indexed": true,
          "internalType": "address",
          "name": "sender",
          "type": "address"
        }
      ],
      "name": "RoleGranted",
      "type": "event"
    },
    {
      "anonymous": false,
      "inputs": [
        {
          "indexed": true,
          "internalType": "bytes32",
          "name": "role",
          "type": "bytes32"
        },
        {
          "indexed": true,
          "internalType": "address",
          "name": "account",
          "type": "address"
        },
        {
          "indexed": true,
          "internalType": "address",
          "name": "sender",
          "type": "address"
        }
      ],
      "name": "RoleRevoked",
      "type": "event"
    },
    {
      "anonymous": false,
      "inputs": [
        {
          "indexed": true,
          "internalType": "address",
          "name": "from",
          "type": "address"
        },
        {
          "indexed": true,
          "internalType": "address",
          "name": "to",
          "type": "address"
        },
        {
          "indexed": true,
          "internalType": "uint256",
          "name": "tokenId",
          "type": "uint256"
        }
      ],
      "name": "Transfer",
      "type": "event"
    },
    {
      "anonymous": false,
      "inputs": [
        {
          "indexed": false,
          "internalType": "address",
          "name": "account",
          "type": "address"
        }
      ],
      "name": "Unpaused",
      "type": "event"
    },
    {
      "anonymous": false,
      "inputs": [
        {
          "indexed": true,
          "internalType": "address",
          "name": "implementation",
          "type": "address"
        }
      ],
      "name": "Upgraded",
      "type": "event"
    },
    {
      "anonymous": false,
      "inputs": [
        {
          "indexed": true,
          "internalType": "address",
          "name": "user",
          "type": "address"
        },
        {
          "indexed": false,
          "internalType": "string",
          "name": "BFloFingerprintHash",
          "type": "string"
        }
      ],
      "name": "mintBFloFingerPrintMintEv",
      "type": "event"
    },
    {
      "inputs": [],
      "name": "DEFAULT_ADMIN_ROLE",
      "outputs": [
        {
          "internalType": "bytes32",
          "name": "",
          "type": "bytes32"
        }
      ],
      "stateMutability": "view",
      "type": "function"
    },
    {
      "inputs": [],
      "name": "MINTER_ROLE",
      "outputs": [
        {
          "internalType": "bytes32",
          "name": "",
          "type": "bytes32"
        }
      ],
      "stateMutability": "view",
      "type": "function"
    },
    {
      "inputs": [],
      "name": "PAUSER_ROLE",
      "outputs": [
        {
          "internalType": "bytes32",
          "name": "",
          "type": "bytes32"
        }
      ],
      "stateMutability": "view",
      "type": "function"
    },
    {
      "inputs": [],
      "name": "UPGRADER_ROLE",
      "outputs": [
        {
          "internalType": "bytes32",
          "name": "",
          "type": "bytes32"
        }
      ],
      "stateMutability": "view",
      "type": "function"
    },
    {
      "inputs": [
        {
          "internalType": "address",
          "name": "to",
          "type": "address"
        },
        {
          "internalType": "uint256",
          "name": "tokenId",
          "type": "uint256"
        }
      ],
      "name": "approve",
      "outputs": [],
      "stateMutability": "nonpayable",
      "type": "function"
    },
    {
      "inputs": [
        {
          "internalType": "address",
          "name": "owner",
          "type": "address"
        }
      ],
      "name": "balanceOf",
      "outputs": [
        {
          "internalType": "uint256",
          "name": "",
          "type": "uint256"
        }
      ],
      "stateMutability": "view",
      "type": "function"
    },
    {
      "inputs": [
        {
          "internalType": "uint256",
          "name": "tokenId",
          "type": "uint256"
        }
      ],
      "name": "burn",
      "outputs": [],
      "stateMutability": "nonpayable",
      "type": "function"
    },
    {
      "inputs": [
        {
          "internalType": "uint256",
          "name": "tokenId",
          "type": "uint256"
        }
      ],
      "name": "getApproved",
      "outputs": [
        {
          "internalType": "address",
          "name": "",
          "type": "address"
        }
      ],
      "stateMutability": "view",
      "type": "function"
    },
    {
      "inputs": [
        {
          "internalType": "bytes32",
          "name": "role",
          "type": "bytes32"
        }
      ],
      "name": "getRoleAdmin",
      "outputs": [
        {
          "internalType": "bytes32",
          "name": "",
          "type": "bytes32"
        }
      ],
      "stateMutability": "view",
      "type": "function"
    },
    {
      "inputs": [
        {
          "internalType": "bytes32",
          "name": "role",
          "type": "bytes32"
        },
        {
          "internalType": "address",
          "name": "account",
          "type": "address"
        }
      ],
      "name": "grantRole",
      "outputs": [],
      "stateMutability": "nonpayable",
      "type": "function"
    },
    {
      "inputs": [
        {
          "internalType": "bytes32",
          "name": "role",
          "type": "bytes32"
        },
        {
          "internalType": "address",
          "name": "account",
          "type": "address"
        }
      ],
      "name": "hasRole",
      "outputs": [
        {
          "internalType": "bool",
          "name": "",
          "type": "bool"
        }
      ],
      "stateMutability": "view",
      "type": "function"
    },
    {
      "inputs": [],
      "name": "initialize",
      "outputs": [],
      "stateMutability": "nonpayable",
      "type": "function"
    },
    {
      "inputs": [
        {
          "internalType": "address",
          "name": "owner",
          "type": "address"
        },
        {
          "internalType": "address",
          "name": "operator",
          "type": "address"
        }
      ],
      "name": "isApprovedForAll",
      "outputs": [
        {
          "internalType": "bool",
          "name": "",
          "type": "bool"
        }
      ],
      "stateMutability": "view",
      "type": "function"
    },
    {
      "inputs": [
        {
          "internalType": "string",
          "name": "_FingerprintURI",
          "type": "string"
        }
      ],
      "name": "mintBFloFingerprint",
      "outputs": [],
      "stateMutability": "nonpayable",
      "type": "function"
    },
    {
      "inputs": [],
      "name": "name",
      "outputs": [
        {
          "internalType": "string",
          "name": "",
          "type": "string"
        }
      ],
      "stateMutability": "view",
      "type": "function"
    },
    {
      "inputs": [
        {
          "internalType": "uint256",
          "name": "tokenId",
          "type": "uint256"
        }
      ],
      "name": "ownerOf",
      "outputs": [
        {
          "internalType": "address",
          "name": "",
          "type": "address"
        }
      ],
      "stateMutability": "view",
      "type": "function"
    },
    {
      "inputs": [],
      "name": "pause",
      "outputs": [],
      "stateMutability": "nonpayable",
      "type": "function"
    },
    {
      "inputs": [],
      "name": "paused",
      "outputs": [
        {
          "internalType": "bool",
          "name": "",
          "type": "bool"
        }
      ],
      "stateMutability": "view",
      "type": "function"
    },
    {
      "inputs": [],
      "name": "proxiableUUID",
      "outputs": [
        {
          "internalType": "bytes32",
          "name": "",
          "type": "bytes32"
        }
      ],
      "stateMutability": "view",
      "type": "function"
    },
    {
      "inputs": [
        {
          "internalType": "bytes32",
          "name": "role",
          "type": "bytes32"
        },
        {
          "internalType": "address",
          "name": "account",
          "type": "address"
        }
      ],
      "name": "renounceRole",
      "outputs": [],
      "stateMutability": "nonpayable",
      "type": "function"
    },
    {
      "inputs": [
        {
          "internalType": "bytes32",
          "name": "role",
          "type": "bytes32"
        },
        {
          "internalType": "address",
          "name": "account",
          "type": "address"
        }
      ],
      "name": "revokeRole",
      "outputs": [],
      "stateMutability": "nonpayable",
      "type": "function"
    },
    {
      "inputs": [
        {
          "internalType": "address",
          "name": "from",
          "type": "address"
        },
        {
          "internalType": "address",
          "name": "to",
          "type": "address"
        },
        {
          "internalType": "uint256",
          "name": "tokenId",
          "type": "uint256"
        }
      ],
      "name": "safeTransferFrom",
      "outputs": [],
      "stateMutability": "nonpayable",
      "type": "function"
    },
    {
      "inputs": [
        {
          "internalType": "address",
          "name": "from",
          "type": "address"
        },
        {
          "internalType": "address",
          "name": "to",
          "type": "address"
        },
        {
          "internalType": "uint256",
          "name": "tokenId",
          "type": "uint256"
        },
        {
          "internalType": "bytes",
          "name": "data",
          "type": "bytes"
        }
      ],
      "name": "safeTransferFrom",
      "outputs": [],
      "stateMutability": "nonpayable",
      "type": "function"
    },
    {
      "inputs": [
        {
          "internalType": "address",
          "name": "operator",
          "type": "address"
        },
        {
          "internalType": "bool",
          "name": "approved",
          "type": "bool"
        }
      ],
      "name": "setApprovalForAll",
      "outputs": [],
      "stateMutability": "nonpayable",
      "type": "function"
    },
    {
      "inputs": [
        {
          "internalType": "bytes4",
          "name": "interfaceId",
          "type": "bytes4"
        }
      ],
      "name": "supportsInterface",
      "outputs": [
        {
          "internalType": "bool",
          "name": "",
          "type": "bool"
        }
      ],
      "stateMutability": "view",
      "type": "function"
    },
    {
      "inputs": [],
      "name": "symbol",
      "outputs": [
        {
          "internalType": "string",
          "name": "",
          "type": "string"
        }
      ],
      "stateMutability": "view",
      "type": "function"
    },
    {
      "inputs": [
        {
          "internalType": "uint256",
          "name": "index",
          "type": "uint256"
        }
      ],
      "name": "tokenByIndex",
      "outputs": [
        {
          "internalType": "uint256",
          "name": "",
          "type": "uint256"
        }
      ],
      "stateMutability": "view",
      "type": "function"
    },
    {
      "inputs": [
        {
          "internalType": "address",
          "name": "owner",
          "type": "address"
        },
        {
          "internalType": "uint256",
          "name": "index",
          "type": "uint256"
        }
      ],
      "name": "tokenOfOwnerByIndex",
      "outputs": [
        {
          "internalType": "uint256",
          "name": "",
          "type": "uint256"
        }
      ],
      "stateMutability": "view",
      "type": "function"
    },
    {
      "inputs": [
        {
          "internalType": "uint256",
          "name": "tokenId",
          "type": "uint256"
        }
      ],
      "name": "tokenURI",
      "outputs": [
        {
          "internalType": "string",
          "name": "",
          "type": "string"
        }
      ],
      "stateMutability": "view",
      "type": "function"
    },
    {
      "inputs": [],
      "name": "totalSupply",
      "outputs": [
        {
          "internalType": "uint256",
          "name": "",
          "type": "uint256"
        }
      ],
      "stateMutability": "view",
      "type": "function"
    },
    {
      "inputs": [
        {
          "internalType": "address",
          "name": "from",
          "type": "address"
        },
        {
          "internalType": "address",
          "name": "to",
          "type": "address"
        },
        {
          "internalType": "uint256",
          "name": "tokenId",
          "type": "uint256"
        }
      ],
      "name": "transferFrom",
      "outputs": [],
      "stateMutability": "nonpayable",
      "type": "function"
    },
    {
      "inputs": [],
      "name": "unpause",
      "outputs": [],
      "stateMutability": "nonpayable",
      "type": "function"
    },
    {
      "inputs": [
        {
          "internalType": "address",
          "name": "newImplementation",
          "type": "address"
        }
      ],
      "name": "upgradeTo",
      "outputs": [],
      "stateMutability": "nonpayable",
      "type": "function"
    },
    {
      "inputs": [
        {
          "internalType": "address",
          "name": "newImplementation",
          "type": "address"
        },
        {
          "internalType": "bytes",
          "name": "data",
          "type": "bytes"
        }
      ],
      "name": "upgradeToAndCall",
      "outputs": [],
      "stateMutability": "payable",
      "type": "function"
    }
  ],
  "bytecode": "0x60a06040523073ffffffffffffffffffffffffffffffffffffffff1660809073ffffffffffffffffffffffffffffffffffffffff168152503480156200004457600080fd5b506200005a6200006060201b6200179c1760201c565b6200020b565b600060019054906101000a900460ff1615620000b3576040517f08c379a0000000000000000000000000000000000000000000000000000000008152600401620000aa90620001ae565b60405180910390fd5b60ff801660008054906101000a900460ff1660ff161015620001255760ff6000806101000a81548160ff021916908360ff1602179055507f7f26b83ff96e1f2b6a682f133852f6798a09c465da95921460cefb384740249860ff6040516200011c9190620001ee565b60405180910390a15b565b600082825260208201905092915050565b7f496e697469616c697a61626c653a20636f6e747261637420697320696e69746960008201527f616c697a696e6700000000000000000000000000000000000000000000000000602082015250565b60006200019660278362000127565b9150620001a38262000138565b604082019050919050565b60006020820190508181036000830152620001c98162000187565b9050919050565b600060ff82169050919050565b620001e881620001d0565b82525050565b6000602082019050620002056000830184620001dd565b92915050565b608051615fde6200024360003960008181610be101528181610c6f01528181610e1a01528181610ea80152610fc90152615fde6000f3fe6080604052600436106101f95760003560e01c80635c975abb1161010d578063a22cb465116100a0578063d53913931161006f578063d539139314610720578063d547741f1461074b578063e63ab1e914610774578063e985e9c51461079f578063f72c0d8b146107dc576101f9565b8063a22cb46514610668578063b88d4fde14610691578063c87b56dd146106ba578063ca3cd851146106f7576101f9565b80638456cb59116100dc5780638456cb59146105be57806391d14854146105d557806395d89b4114610612578063a217fddf1461063d576101f9565b80635c975abb146105025780636352211e1461052d57806370a082311461056a5780638129fc1c146105a7576101f9565b80632f745c591161019057806342842e0e1161015f57806342842e0e1461042c57806342966c68146104555780634f1ef2861461047e5780634f6ccce71461049a57806352d1902d146104d7576101f9565b80632f745c591461038657806336568abe146103c35780633659cfe6146103ec5780633f4ba83a14610415576101f9565b806318160ddd116101cc57806318160ddd146102cc57806323b872dd146102f7578063248a9ca3146103205780632f2ff15d1461035d576101f9565b806301ffc9a7146101fe57806306fdde031461023b578063081812fc14610266578063095ea7b3146102a3575b600080fd5b34801561020a57600080fd5b506102256004803603810190610220919061406a565b610807565b60405161023291906140b2565b60405180910390f35b34801561024757600080fd5b50610250610819565b60405161025d919061415d565b60405180910390f35b34801561027257600080fd5b5061028d600480360381019061028891906141b5565b6108ab565b60405161029a9190614223565b60405180910390f35b3480156102af57600080fd5b506102ca60048036038101906102c5919061426a565b6108f1565b005b3480156102d857600080fd5b506102e1610a08565b6040516102ee91906142b9565b60405180910390f35b34801561030357600080fd5b5061031e600480360381019061031991906142d4565b610a15565b005b34801561032c57600080fd5b506103476004803603810190610342919061435d565b610a75565b6040516103549190614399565b60405180910390f35b34801561036957600080fd5b50610384600480360381019061037f91906143b4565b610a96565b005b34801561039257600080fd5b506103ad60048036038101906103a8919061426a565b610ab7565b6040516103ba91906142b9565b60405180910390f35b3480156103cf57600080fd5b506103ea60048036038101906103e591906143b4565b610b5c565b005b3480156103f857600080fd5b50610413600480360381019061040e91906143f4565b610bdf565b005b34801561042157600080fd5b5061042a610d67565b005b34801561043857600080fd5b50610453600480360381019061044e91906142d4565b610d9c565b005b34801561046157600080fd5b5061047c600480360381019061047791906141b5565b610dbc565b005b61049860048036038101906104939190614556565b610e18565b005b3480156104a657600080fd5b506104c160048036038101906104bc91906141b5565b610f54565b6040516104ce91906142b9565b60405180910390f35b3480156104e357600080fd5b506104ec610fc5565b6040516104f99190614399565b60405180910390f35b34801561050e57600080fd5b5061051761107e565b60405161052491906140b2565b60405180910390f35b34801561053957600080fd5b50610554600480360381019061054f91906141b5565b611095565b6040516105619190614223565b60405180910390f35b34801561057657600080fd5b50610591600480360381019061058c91906143f4565b61111b565b60405161059e91906142b9565b60405180910390f35b3480156105b357600080fd5b506105bc6111d2565b005b3480156105ca57600080fd5b506105d3611437565b005b3480156105e157600080fd5b506105fc60048036038101906105f791906143b4565b61146c565b60405161060991906140b2565b60405180910390f35b34801561061e57600080fd5b506106276114d8565b604051610634919061415d565b60405180910390f35b34801561064957600080fd5b5061065261156a565b60405161065f9190614399565b60405180910390f35b34801561067457600080fd5b5061068f600480360381019061068a91906145de565b611571565b005b34801561069d57600080fd5b506106b860048036038101906106b3919061461e565b611587565b005b3480156106c657600080fd5b506106e160048036038101906106dc91906141b5565b6115e9565b6040516106ee919061415d565b60405180910390f35b34801561070357600080fd5b5061071e60048036038101906107199190614742565b6115fb565b005b34801561072c57600080fd5b5061073561167b565b6040516107429190614399565b60405180910390f35b34801561075757600080fd5b50610772600480360381019061076d91906143b4565b61169f565b005b34801561078057600080fd5b506107896116c0565b6040516107969190614399565b60405180910390f35b3480156107ab57600080fd5b506107c660048036038101906107c1919061478b565b6116e4565b6040516107d391906140b2565b60405180910390f35b3480156107e857600080fd5b506107f1611778565b6040516107fe9190614399565b60405180910390f35b60006108128261185d565b9050919050565b606060658054610828906147fa565b80601f0160208091040260200160405190810160405280929190818152602001828054610854906147fa565b80156108a15780601f10610876576101008083540402835291602001916108a1565b820191906000526020600020905b81548152906001019060200180831161088457829003601f168201915b5050505050905090565b60006108b6826118d7565b6069600083815260200190815260200160002060009054906101000a900473ffffffffffffffffffffffffffffffffffffffff169050919050565b60006108fc82611095565b90508073ffffffffffffffffffffffffffffffffffffffff168373ffffffffffffffffffffffffffffffffffffffff160361096c576040517f08c379a00000000000000000000000000000000000000000000000000000000081526004016109639061489d565b60405180910390fd5b8073ffffffffffffffffffffffffffffffffffffffff1661098b611922565b73ffffffffffffffffffffffffffffffffffffffff1614806109ba57506109b9816109b4611922565b6116e4565b5b6109f9576040517f08c379a00000000000000000000000000000000000000000000000000000000081526004016109f09061492f565b60405180910390fd5b610a03838361192a565b505050565b6000609980549050905090565b610a26610a20611922565b826119e3565b610a65576040517f08c379a0000000000000000000000000000000000000000000000000000000008152600401610a5c906149c1565b60405180910390fd5b610a70838383611a78565b505050565b600061012d6000838152602001908152602001600020600101549050919050565b610a9f82610a75565b610aa881611d71565b610ab28383611d85565b505050565b6000610ac28361111b565b8210610b03576040517f08c379a0000000000000000000000000000000000000000000000000000000008152600401610afa90614a53565b60405180910390fd5b609760008473ffffffffffffffffffffffffffffffffffffffff1673ffffffffffffffffffffffffffffffffffffffff168152602001908152602001600020600083815260200190815260200160002054905092915050565b610b64611922565b73ffffffffffffffffffffffffffffffffffffffff168173ffffffffffffffffffffffffffffffffffffffff1614610bd1576040517f08c379a0000000000000000000000000000000000000000000000000000000008152600401610bc890614ae5565b60405180910390fd5b610bdb8282611e67565b5050565b7f000000000000000000000000000000000000000000000000000000000000000073ffffffffffffffffffffffffffffffffffffffff163073ffffffffffffffffffffffffffffffffffffffff1603610c6d576040517f08c379a0000000000000000000000000000000000000000000000000000000008152600401610c6490614b77565b60405180910390fd5b7f000000000000000000000000000000000000000000000000000000000000000073ffffffffffffffffffffffffffffffffffffffff16610cac611f4a565b73ffffffffffffffffffffffffffffffffffffffff1614610d02576040517f08c379a0000000000000000000000000000000000000000000000000000000008152600401610cf990614c09565b60405180910390fd5b610d0b81611fa1565b610d6481600067ffffffffffffffff811115610d2a57610d2961442b565b5b6040519080825280601f01601f191660200182016040528015610d5c5781602001600182028036833780820191505090505b506000611fcf565b50565b7f65d7a28e3265b37a6474929f336521b332c1681b933f6cb9f3376673440d862a610d9181611d71565b610d9961213d565b50565b610db783838360405180602001604052806000815250611587565b505050565b610dcd610dc7611922565b826119e3565b610e0c576040517f08c379a0000000000000000000000000000000000000000000000000000000008152600401610e03906149c1565b60405180910390fd5b610e15816121a0565b50565b7f000000000000000000000000000000000000000000000000000000000000000073ffffffffffffffffffffffffffffffffffffffff163073ffffffffffffffffffffffffffffffffffffffff1603610ea6576040517f08c379a0000000000000000000000000000000000000000000000000000000008152600401610e9d90614b77565b60405180910390fd5b7f000000000000000000000000000000000000000000000000000000000000000073ffffffffffffffffffffffffffffffffffffffff16610ee5611f4a565b73ffffffffffffffffffffffffffffffffffffffff1614610f3b576040517f08c379a0000000000000000000000000000000000000000000000000000000008152600401610f3290614c09565b60405180910390fd5b610f4482611fa1565b610f5082826001611fcf565b5050565b6000610f5e610a08565b8210610f9f576040517f08c379a0000000000000000000000000000000000000000000000000000000008152600401610f9690614c9b565b60405180910390fd5b60998281548110610fb357610fb2614cbb565b5b90600052602060002001549050919050565b60007f000000000000000000000000000000000000000000000000000000000000000073ffffffffffffffffffffffffffffffffffffffff163073ffffffffffffffffffffffffffffffffffffffff1614611055576040517f08c379a000000000000000000000000000000000000000000000000000000000815260040161104c90614d5c565b60405180910390fd5b7f360894a13ba1a3210667c828492db98dca3e2076cc3735a920a3ca505d382bbc60001b905090565b600060fb60009054906101000a900460ff16905090565b6000806110a1836121ac565b9050600073ffffffffffffffffffffffffffffffffffffffff168173ffffffffffffffffffffffffffffffffffffffff1603611112576040517f08c379a000000000000000000000000000000000000000000000000000000000815260040161110990614dc8565b60405180910390fd5b80915050919050565b60008073ffffffffffffffffffffffffffffffffffffffff168273ffffffffffffffffffffffffffffffffffffffff160361118b576040517f08c379a000000000000000000000000000000000000000000000000000000000815260040161118290614e5a565b60405180910390fd5b606860008373ffffffffffffffffffffffffffffffffffffffff1673ffffffffffffffffffffffffffffffffffffffff168152602001908152602001600020549050919050565b60008060019054906101000a900460ff161590508080156112035750600160008054906101000a900460ff1660ff16105b806112305750611212306121e9565b15801561122f5750600160008054906101000a900460ff1660ff16145b5b61126f576040517f08c379a000000000000000000000000000000000000000000000000000000000815260040161126690614eec565b60405180910390fd5b60016000806101000a81548160ff021916908360ff16021790555080156112ac576001600060016101000a81548160ff0219169083151502179055505b6113206040518060400160405280601081526020017f42466c6f2046696e6765727072696e74000000000000000000000000000000008152506040518060400160405280600681526020017f42464c4f4650000000000000000000000000000000000000000000000000000081525061220c565b611328612269565b6113306122ba565b61133861230b565b611340612364565b6113486123b5565b611350612406565b61135d6000801b33611d85565b6113877f65d7a28e3265b37a6474929f336521b332c1681b933f6cb9f3376673440d862a33611d85565b6113b17f9f2df0fed2c77648de5860a4cc508cd0818c85b8b8a1ab4ceeef8d981c8956a633611d85565b6113db7f189ab7a9244df0848122154315af71fe140f3db0fe014031783b0946b8c9d2e333611d85565b80156114345760008060016101000a81548160ff0219169083151502179055507f7f26b83ff96e1f2b6a682f133852f6798a09c465da95921460cefb3847402498600160405161142b9190614f5e565b60405180910390a15b50565b7f65d7a28e3265b37a6474929f336521b332c1681b933f6cb9f3376673440d862a61146181611d71565b611469612457565b50565b600061012d600084815260200190815260200160002060000160008373ffffffffffffffffffffffffffffffffffffffff1673ffffffffffffffffffffffffffffffffffffffff16815260200190815260200160002060009054906101000a900460ff16905092915050565b6060606680546114e7906147fa565b80601f0160208091040260200160405190810160405280929190818152602001828054611513906147fa565b80156115605780601f1061153557610100808354040283529160200191611560565b820191906000526020600020905b81548152906001019060200180831161154357829003601f168201915b5050505050905090565b6000801b81565b61158361157c611922565b83836124ba565b5050565b611598611592611922565b836119e3565b6115d7576040517f08c379a00000000000000000000000000000000000000000000000000000000081526004016115ce906149c1565b60405180910390fd5b6115e384848484612626565b50505050565b60606115f482612682565b9050919050565b60006116086101f5612794565b90506116156101f56127a2565b61161f33826127b8565b61162981836127d6565b3373ffffffffffffffffffffffffffffffffffffffff167f1327bc082e1e303c0cb29460006725389ff90fc63d94374c8ddf530f9a1025df8360405161166f919061415d565b60405180910390a25050565b7f9f2df0fed2c77648de5860a4cc508cd0818c85b8b8a1ab4ceeef8d981c8956a681565b6116a882610a75565b6116b181611d71565b6116bb8383611e67565b505050565b7f65d7a28e3265b37a6474929f336521b332c1681b933f6cb9f3376673440d862a81565b6000606a60008473ffffffffffffffffffffffffffffffffffffffff1673ffffffffffffffffffffffffffffffffffffffff16815260200190815260200160002060008373ffffffffffffffffffffffffffffffffffffffff1673ffffffffffffffffffffffffffffffffffffffff16815260200190815260200160002060009054906101000a900460ff16905092915050565b7f189ab7a9244df0848122154315af71fe140f3db0fe014031783b0946b8c9d2e381565b600060019054906101000a900460ff16156117ec576040517f08c379a00000000000000000000000000000000000000000000000000000000081526004016117e390614feb565b60405180910390fd5b60ff801660008054906101000a900460ff1660ff16101561185b5760ff6000806101000a81548160ff021916908360ff1602179055507f7f26b83ff96e1f2b6a682f133852f6798a09c465da95921460cefb384740249860ff604051611852919061501a565b60405180910390a15b565b60007f7965db0b000000000000000000000000000000000000000000000000000000007bffffffffffffffffffffffffffffffffffffffffffffffffffffffff1916827bffffffffffffffffffffffffffffffffffffffffffffffffffffffff191614806118d057506118cf82612843565b5b9050919050565b6118e0816128bd565b61191f576040517f08c379a000000000000000000000000000000000000000000000000000000000815260040161191690614dc8565b60405180910390fd5b50565b600033905090565b816069600083815260200190815260200160002060006101000a81548173ffffffffffffffffffffffffffffffffffffffff021916908373ffffffffffffffffffffffffffffffffffffffff160217905550808273ffffffffffffffffffffffffffffffffffffffff1661199d83611095565b73ffffffffffffffffffffffffffffffffffffffff167f8c5be1e5ebec7d5bd14f71427d1e84f3dd0314c0f7b2291e5b200ac8c7c3b92560405160405180910390a45050565b6000806119ef83611095565b90508073ffffffffffffffffffffffffffffffffffffffff168473ffffffffffffffffffffffffffffffffffffffff161480611a315750611a3081856116e4565b5b80611a6f57508373ffffffffffffffffffffffffffffffffffffffff16611a57846108ab565b73ffffffffffffffffffffffffffffffffffffffff16145b91505092915050565b8273ffffffffffffffffffffffffffffffffffffffff16611a9882611095565b73ffffffffffffffffffffffffffffffffffffffff1614611aee576040517f08c379a0000000000000000000000000000000000000000000000000000000008152600401611ae5906150a7565b60405180910390fd5b600073ffffffffffffffffffffffffffffffffffffffff168273ffffffffffffffffffffffffffffffffffffffff1603611b5d576040517f08c379a0000000000000000000000000000000000000000000000000000000008152600401611b5490615139565b60405180910390fd5b611b6a83838360016128fe565b8273ffffffffffffffffffffffffffffffffffffffff16611b8a82611095565b73ffffffffffffffffffffffffffffffffffffffff1614611be0576040517f08c379a0000000000000000000000000000000000000000000000000000000008152600401611bd7906150a7565b60405180910390fd5b6069600082815260200190815260200160002060006101000a81549073ffffffffffffffffffffffffffffffffffffffff02191690556001606860008573ffffffffffffffffffffffffffffffffffffffff1673ffffffffffffffffffffffffffffffffffffffff168152602001908152602001600020600082825403925050819055506001606860008473ffffffffffffffffffffffffffffffffffffffff1673ffffffffffffffffffffffffffffffffffffffff16815260200190815260200160002060008282540192505081905550816067600083815260200190815260200160002060006101000a81548173ffffffffffffffffffffffffffffffffffffffff021916908373ffffffffffffffffffffffffffffffffffffffff160217905550808273ffffffffffffffffffffffffffffffffffffffff168473ffffffffffffffffffffffffffffffffffffffff167fddf252ad1be2c89b69c2b068fc378daa952ba7f163c4a11628f55a4df523b3ef60405160405180910390a4611d6c8383836001612987565b505050565b611d8281611d7d611922565b61298d565b50565b611d8f828261146c565b611e6357600161012d600084815260200190815260200160002060000160008373ffffffffffffffffffffffffffffffffffffffff1673ffffffffffffffffffffffffffffffffffffffff16815260200190815260200160002060006101000a81548160ff021916908315150217905550611e08611922565b73ffffffffffffffffffffffffffffffffffffffff168173ffffffffffffffffffffffffffffffffffffffff16837f2f8788117e7eff1d82e926ec794901d17c78024a50270940304540a733656f0d60405160405180910390a45b5050565b611e71828261146c565b15611f4657600061012d600084815260200190815260200160002060000160008373ffffffffffffffffffffffffffffffffffffffff1673ffffffffffffffffffffffffffffffffffffffff16815260200190815260200160002060006101000a81548160ff021916908315150217905550611eeb611922565b73ffffffffffffffffffffffffffffffffffffffff168173ffffffffffffffffffffffffffffffffffffffff16837ff6391f5c32d9c69d2a47ea670b442974b53935d1edc7fd64eb21e047a839171b60405160405180910390a45b5050565b6000611f787f360894a13ba1a3210667c828492db98dca3e2076cc3735a920a3ca505d382bbc60001b612a12565b60000160009054906101000a900473ffffffffffffffffffffffffffffffffffffffff16905090565b7f189ab7a9244df0848122154315af71fe140f3db0fe014031783b0946b8c9d2e3611fcb81611d71565b5050565b611ffb7f4910fdfa16fed3260ed0e7147f7cc6da11a60208b5b9406d12a635614ffd914360001b612a1c565b60000160009054906101000a900460ff161561201f5761201a83612a26565b612138565b8273ffffffffffffffffffffffffffffffffffffffff166352d1902d6040518163ffffffff1660e01b8152600401602060405180830381865afa92505050801561208757506040513d601f19601f82011682018060405250810190612084919061516e565b60015b6120c6576040517f08c379a00000000000000000000000000000000000000000000000000000000081526004016120bd9061520d565b60405180910390fd5b7f360894a13ba1a3210667c828492db98dca3e2076cc3735a920a3ca505d382bbc60001b811461212b576040517f08c379a00000000000000000000000000000000000000000000000000000000081526004016121229061529f565b60405180910390fd5b50612137838383612adf565b5b505050565b612145612b0b565b600060fb60006101000a81548160ff0219169083151502179055507f5db9ee0a495bf2e6ff9c91a7834c1ba4fdd244a5e8aa4e537bd38aeae4b073aa612189611922565b6040516121969190614223565b60405180910390a1565b6121a981612b54565b50565b60006067600083815260200190815260200160002060009054906101000a900473ffffffffffffffffffffffffffffffffffffffff169050919050565b6000808273ffffffffffffffffffffffffffffffffffffffff163b119050919050565b600060019054906101000a900460ff1661225b576040517f08c379a000000000000000000000000000000000000000000000000000000000815260040161225290615331565b60405180910390fd5b6122658282612ba7565b5050565b600060019054906101000a900460ff166122b8576040517f08c379a00000000000000000000000000000000000000000000000000000000081526004016122af90615331565b60405180910390fd5b565b600060019054906101000a900460ff16612309576040517f08c379a000000000000000000000000000000000000000000000000000000000815260040161230090615331565b60405180910390fd5b565b600060019054906101000a900460ff1661235a576040517f08c379a000000000000000000000000000000000000000000000000000000000815260040161235190615331565b60405180910390fd5b612362612c1a565b565b600060019054906101000a900460ff166123b3576040517f08c379a00000000000000000000000000000000000000000000000000000000081526004016123aa90615331565b60405180910390fd5b565b600060019054906101000a900460ff16612404576040517f08c379a00000000000000000000000000000000000000000000000000000000081526004016123fb90615331565b60405180910390fd5b565b600060019054906101000a900460ff16612455576040517f08c379a000000000000000000000000000000000000000000000000000000000815260040161244c90615331565b60405180910390fd5b565b61245f612c86565b600160fb60006101000a81548160ff0219169083151502179055507f62e78cea01bee320cd4e420270b5ea74000d11b0c9f74754ebdbfc544b05a2586124a3611922565b6040516124b09190614223565b60405180910390a1565b8173ffffffffffffffffffffffffffffffffffffffff168373ffffffffffffffffffffffffffffffffffffffff1603612528576040517f08c379a000000000000000000000000000000000000000000000000000000000815260040161251f9061539d565b60405180910390fd5b80606a60008573ffffffffffffffffffffffffffffffffffffffff1673ffffffffffffffffffffffffffffffffffffffff16815260200190815260200160002060008473ffffffffffffffffffffffffffffffffffffffff1673ffffffffffffffffffffffffffffffffffffffff16815260200190815260200160002060006101000a81548160ff0219169083151502179055508173ffffffffffffffffffffffffffffffffffffffff168373ffffffffffffffffffffffffffffffffffffffff167f17307eab39ab6107e8899845ad3d59bd9653f200f220920489ca2b5937696c318360405161261991906140b2565b60405180910390a3505050565b612631848484611a78565b61263d84848484612cd0565b61267c576040517f08c379a00000000000000000000000000000000000000000000000000000000081526004016126739061542f565b60405180910390fd5b50505050565b606061268d826118d7565b600060c9600084815260200190815260200160002080546126ad906147fa565b80601f01602080910402602001604051908101604052809291908181526020018280546126d9906147fa565b80156127265780601f106126fb57610100808354040283529160200191612726565b820191906000526020600020905b81548152906001019060200180831161270957829003601f168201915b505050505090506000612737612e57565b9050600081510361274c57819250505061278f565b60008251111561278157808260405160200161276992919061548b565b6040516020818303038152906040529250505061278f565b61278a84612e6e565b925050505b919050565b600081600001549050919050565b6001816000016000828254019250508190555050565b6127d2828260405180602001604052806000815250612ed6565b5050565b6127df826128bd565b61281e576040517f08c379a000000000000000000000000000000000000000000000000000000000815260040161281590615521565b60405180910390fd5b8060c96000848152602001908152602001600020908161283e91906156e3565b505050565b60007f780e9d63000000000000000000000000000000000000000000000000000000007bffffffffffffffffffffffffffffffffffffffffffffffffffffffff1916827bffffffffffffffffffffffffffffffffffffffffffffffffffffffff191614806128b657506128b582612f31565b5b9050919050565b60008073ffffffffffffffffffffffffffffffffffffffff166128df836121ac565b73ffffffffffffffffffffffffffffffffffffffff1614159050919050565b612906612c86565b600073ffffffffffffffffffffffffffffffffffffffff168473ffffffffffffffffffffffffffffffffffffffff1614612975576040517f08c379a000000000000000000000000000000000000000000000000000000000815260040161296c90615827565b60405180910390fd5b61298184848484613013565b50505050565b50505050565b612997828261146c565b612a0e576129a481613171565b6129b28360001c602061319e565b6040516020016129c39291906158df565b6040516020818303038152906040526040517f08c379a0000000000000000000000000000000000000000000000000000000008152600401612a05919061415d565b60405180910390fd5b5050565b6000819050919050565b6000819050919050565b612a2f816121e9565b612a6e576040517f08c379a0000000000000000000000000000000000000000000000000000000008152600401612a659061598b565b60405180910390fd5b80612a9b7f360894a13ba1a3210667c828492db98dca3e2076cc3735a920a3ca505d382bbc60001b612a12565b60000160006101000a81548173ffffffffffffffffffffffffffffffffffffffff021916908373ffffffffffffffffffffffffffffffffffffffff16021790555050565b612ae8836133da565b600082511180612af55750805b15612b0657612b048383613429565b505b505050565b612b1361107e565b612b52576040517f08c379a0000000000000000000000000000000000000000000000000000000008152600401612b49906159f7565b60405180910390fd5b565b612b5d8161350d565b600060c960008381526020019081526020016000208054612b7d906147fa565b905014612ba45760c960008281526020019081526020016000206000612ba39190613fa1565b5b50565b600060019054906101000a900460ff16612bf6576040517f08c379a0000000000000000000000000000000000000000000000000000000008152600401612bed90615331565b60405180910390fd5b8160659081612c0591906156e3565b508060669081612c1591906156e3565b505050565b600060019054906101000a900460ff16612c69576040517f08c379a0000000000000000000000000000000000000000000000000000000008152600401612c6090615331565b60405180910390fd5b600060fb60006101000a81548160ff021916908315150217905550565b612c8e61107e565b15612cce576040517f08c379a0000000000000000000000000000000000000000000000000000000008152600401612cc590615a63565b60405180910390fd5b565b6000612cf18473ffffffffffffffffffffffffffffffffffffffff166121e9565b15612e4a578373ffffffffffffffffffffffffffffffffffffffff1663150b7a02612d1a611922565b8786866040518563ffffffff1660e01b8152600401612d3c9493929190615ad8565b6020604051808303816000875af1925050508015612d7857506040513d601f19601f82011682018060405250810190612d759190615b39565b60015b612dfa573d8060008114612da8576040519150601f19603f3d011682016040523d82523d6000602084013e612dad565b606091505b506000815103612df2576040517f08c379a0000000000000000000000000000000000000000000000000000000008152600401612de99061542f565b60405180910390fd5b805181602001fd5b63150b7a0260e01b7bffffffffffffffffffffffffffffffffffffffffffffffffffffffff1916817bffffffffffffffffffffffffffffffffffffffffffffffffffffffff191614915050612e4f565b600190505b949350505050565b606060405180602001604052806000815250905090565b6060612e79826118d7565b6000612e83612e57565b90506000815111612ea35760405180602001604052806000815250612ece565b80612ead8461365b565b604051602001612ebe92919061548b565b6040516020818303038152906040525b915050919050565b612ee08383613729565b612eed6000848484612cd0565b612f2c576040517f08c379a0000000000000000000000000000000000000000000000000000000008152600401612f239061542f565b60405180910390fd5b505050565b60007f80ac58cd000000000000000000000000000000000000000000000000000000007bffffffffffffffffffffffffffffffffffffffffffffffffffffffff1916827bffffffffffffffffffffffffffffffffffffffffffffffffffffffff19161480612ffc57507f5b5e139f000000000000000000000000000000000000000000000000000000007bffffffffffffffffffffffffffffffffffffffffffffffffffffffff1916827bffffffffffffffffffffffffffffffffffffffffffffffffffffffff1916145b8061300c575061300b82613946565b5b9050919050565b61301f848484846139b0565b6001811115613063576040517f08c379a000000000000000000000000000000000000000000000000000000000815260040161305a90615bd8565b60405180910390fd5b6000829050600073ffffffffffffffffffffffffffffffffffffffff168573ffffffffffffffffffffffffffffffffffffffff16036130aa576130a581613ad6565b6130e9565b8373ffffffffffffffffffffffffffffffffffffffff168573ffffffffffffffffffffffffffffffffffffffff16146130e8576130e78582613b1f565b5b5b600073ffffffffffffffffffffffffffffffffffffffff168473ffffffffffffffffffffffffffffffffffffffff160361312b5761312681613c8c565b61316a565b8473ffffffffffffffffffffffffffffffffffffffff168473ffffffffffffffffffffffffffffffffffffffff1614613169576131688482613d5d565b5b5b5050505050565b60606131978273ffffffffffffffffffffffffffffffffffffffff16601460ff1661319e565b9050919050565b6060600060028360026131b19190615c27565b6131bb9190615c69565b67ffffffffffffffff8111156131d4576131d361442b565b5b6040519080825280601f01601f1916602001820160405280156132065781602001600182028036833780820191505090505b5090507f30000000000000000000000000000000000000000000000000000000000000008160008151811061323e5761323d614cbb565b5b60200101907effffffffffffffffffffffffffffffffffffffffffffffffffffffffffffff1916908160001a9053507f7800000000000000000000000000000000000000000000000000000000000000816001815181106132a2576132a1614cbb565b5b60200101907effffffffffffffffffffffffffffffffffffffffffffffffffffffffffffff1916908160001a905350600060018460026132e29190615c27565b6132ec9190615c69565b90505b600181111561338c577f3031323334353637383961626364656600000000000000000000000000000000600f86166010811061332e5761332d614cbb565b5b1a60f81b82828151811061334557613344614cbb565b5b60200101907effffffffffffffffffffffffffffffffffffffffffffffffffffffffffffff1916908160001a905350600485901c94508061338590615c9d565b90506132ef565b50600084146133d0576040517f08c379a00000000000000000000000000000000000000000000000000000000081526004016133c790615d12565b60405180910390fd5b8091505092915050565b6133e381612a26565b8073ffffffffffffffffffffffffffffffffffffffff167fbc7cd75a20ee27fd9adebab32041f755214dbc6bffa90cc0225b39da2e5c2d3b60405160405180910390a250565b6060613434836121e9565b613473576040517f08c379a000000000000000000000000000000000000000000000000000000000815260040161346a90615da4565b60405180910390fd5b6000808473ffffffffffffffffffffffffffffffffffffffff168460405161349b9190615e00565b600060405180830381855af49150503d80600081146134d6576040519150601f19603f3d011682016040523d82523d6000602084013e6134db565b606091505b50915091506135038282604051806060016040528060278152602001615f8260279139613ddc565b9250505092915050565b600061351882611095565b90506135288160008460016128fe565b61353182611095565b90506069600083815260200190815260200160002060006101000a81549073ffffffffffffffffffffffffffffffffffffffff02191690556001606860008373ffffffffffffffffffffffffffffffffffffffff1673ffffffffffffffffffffffffffffffffffffffff168152602001908152602001600020600082825403925050819055506067600083815260200190815260200160002060006101000a81549073ffffffffffffffffffffffffffffffffffffffff021916905581600073ffffffffffffffffffffffffffffffffffffffff168273ffffffffffffffffffffffffffffffffffffffff167fddf252ad1be2c89b69c2b068fc378daa952ba7f163c4a11628f55a4df523b3ef60405160405180910390a4613657816000846001612987565b5050565b60606000600161366a84613dfe565b01905060008167ffffffffffffffff8111156136895761368861442b565b5b6040519080825280601f01601f1916602001820160405280156136bb5781602001600182028036833780820191505090505b509050600082602001820190505b60011561371e578080600190039150507f3031323334353637383961626364656600000000000000000000000000000000600a86061a8153600a858161371257613711615e17565b5b049450600085036136c9575b819350505050919050565b600073ffffffffffffffffffffffffffffffffffffffff168273ffffffffffffffffffffffffffffffffffffffff1603613798576040517f08c379a000000000000000000000000000000000000000000000000000000000815260040161378f90615e92565b60405180910390fd5b6137a1816128bd565b156137e1576040517f08c379a00000000000000000000000000000000000000000000000000000000081526004016137d890615efe565b60405180910390fd5b6137ef6000838360016128fe565b6137f8816128bd565b15613838576040517f08c379a000000000000000000000000000000000000000000000000000000000815260040161382f90615efe565b60405180910390fd5b6001606860008473ffffffffffffffffffffffffffffffffffffffff1673ffffffffffffffffffffffffffffffffffffffff16815260200190815260200160002060008282540192505081905550816067600083815260200190815260200160002060006101000a81548173ffffffffffffffffffffffffffffffffffffffff021916908373ffffffffffffffffffffffffffffffffffffffff160217905550808273ffffffffffffffffffffffffffffffffffffffff16600073ffffffffffffffffffffffffffffffffffffffff167fddf252ad1be2c89b69c2b068fc378daa952ba7f163c4a11628f55a4df523b3ef60405160405180910390a4613942600083836001612987565b5050565b60007f01ffc9a7000000000000000000000000000000000000000000000000000000007bffffffffffffffffffffffffffffffffffffffffffffffffffffffff1916827bffffffffffffffffffffffffffffffffffffffffffffffffffffffff1916149050919050565b6001811115613ad057600073ffffffffffffffffffffffffffffffffffffffff168473ffffffffffffffffffffffffffffffffffffffff1614613a445780606860008673ffffffffffffffffffffffffffffffffffffffff1673ffffffffffffffffffffffffffffffffffffffff1681526020019081526020016000206000828254613a3c9190615f1e565b925050819055505b600073ffffffffffffffffffffffffffffffffffffffff168373ffffffffffffffffffffffffffffffffffffffff1614613acf5780606860008573ffffffffffffffffffffffffffffffffffffffff1673ffffffffffffffffffffffffffffffffffffffff1681526020019081526020016000206000828254613ac79190615c69565b925050819055505b5b50505050565b609980549050609a600083815260200190815260200160002081905550609981908060018154018082558091505060019003906000526020600020016000909190919091505550565b60006001613b2c8461111b565b613b369190615f1e565b9050600060986000848152602001908152602001600020549050818114613c1b576000609760008673ffffffffffffffffffffffffffffffffffffffff1673ffffffffffffffffffffffffffffffffffffffff168152602001908152602001600020600084815260200190815260200160002054905080609760008773ffffffffffffffffffffffffffffffffffffffff1673ffffffffffffffffffffffffffffffffffffffff168152602001908152602001600020600084815260200190815260200160002081905550816098600083815260200190815260200160002081905550505b6098600084815260200190815260200160002060009055609760008573ffffffffffffffffffffffffffffffffffffffff1673ffffffffffffffffffffffffffffffffffffffff16815260200190815260200160002060008381526020019081526020016000206000905550505050565b60006001609980549050613ca09190615f1e565b90506000609a6000848152602001908152602001600020549050600060998381548110613cd057613ccf614cbb565b5b906000526020600020015490508060998381548110613cf257613cf1614cbb565b5b906000526020600020018190555081609a600083815260200190815260200160002081905550609a6000858152602001908152602001600020600090556099805480613d4157613d40615f52565b5b6001900381819060005260206000200160009055905550505050565b6000613d688361111b565b905081609760008573ffffffffffffffffffffffffffffffffffffffff1673ffffffffffffffffffffffffffffffffffffffff168152602001908152602001600020600083815260200190815260200160002081905550806098600084815260200190815260200160002081905550505050565b60608315613dec57829050613df7565b613df68383613f51565b5b9392505050565b600080600090507a184f03e93ff9f4daa797ed6e38ed64bf6a1f0100000000000000008310613e5c577a184f03e93ff9f4daa797ed6e38ed64bf6a1f0100000000000000008381613e5257613e51615e17565b5b0492506040810190505b6d04ee2d6d415b85acef81000000008310613e99576d04ee2d6d415b85acef81000000008381613e8f57613e8e615e17565b5b0492506020810190505b662386f26fc100008310613ec857662386f26fc100008381613ebe57613ebd615e17565b5b0492506010810190505b6305f5e1008310613ef1576305f5e1008381613ee757613ee6615e17565b5b0492506008810190505b6127108310613f16576127108381613f0c57613f0b615e17565b5b0492506004810190505b60648310613f395760648381613f2f57613f2e615e17565b5b0492506002810190505b600a8310613f48576001810190505b80915050919050565b600082511115613f645781518083602001fd5b806040517f08c379a0000000000000000000000000000000000000000000000000000000008152600401613f98919061415d565b60405180910390fd5b508054613fad906147fa565b6000825580601f10613fbf5750613fde565b601f016020900490600052602060002090810190613fdd9190613fe1565b5b50565b5b80821115613ffa576000816000905550600101613fe2565b5090565b6000604051905090565b600080fd5b600080fd5b60007fffffffff0000000000000000000000000000000000000000000000000000000082169050919050565b61404781614012565b811461405257600080fd5b50565b6000813590506140648161403e565b92915050565b6000602082840312156140805761407f614008565b5b600061408e84828501614055565b91505092915050565b60008115159050919050565b6140ac81614097565b82525050565b60006020820190506140c760008301846140a3565b92915050565b600081519050919050565b600082825260208201905092915050565b60005b838110156141075780820151818401526020810190506140ec565b60008484015250505050565b6000601f19601f8301169050919050565b600061412f826140cd565b61413981856140d8565b93506141498185602086016140e9565b61415281614113565b840191505092915050565b600060208201905081810360008301526141778184614124565b905092915050565b6000819050919050565b6141928161417f565b811461419d57600080fd5b50565b6000813590506141af81614189565b92915050565b6000602082840312156141cb576141ca614008565b5b60006141d9848285016141a0565b91505092915050565b600073ffffffffffffffffffffffffffffffffffffffff82169050919050565b600061420d826141e2565b9050919050565b61421d81614202565b82525050565b60006020820190506142386000830184614214565b92915050565b61424781614202565b811461425257600080fd5b50565b6000813590506142648161423e565b92915050565b6000806040838503121561428157614280614008565b5b600061428f85828601614255565b92505060206142a0858286016141a0565b9150509250929050565b6142b38161417f565b82525050565b60006020820190506142ce60008301846142aa565b92915050565b6000806000606084860312156142ed576142ec614008565b5b60006142fb86828701614255565b935050602061430c86828701614255565b925050604061431d868287016141a0565b9150509250925092565b6000819050919050565b61433a81614327565b811461434557600080fd5b50565b60008135905061435781614331565b92915050565b60006020828403121561437357614372614008565b5b600061438184828501614348565b91505092915050565b61439381614327565b82525050565b60006020820190506143ae600083018461438a565b92915050565b600080604083850312156143cb576143ca614008565b5b60006143d985828601614348565b92505060206143ea85828601614255565b9150509250929050565b60006020828403121561440a57614409614008565b5b600061441884828501614255565b91505092915050565b600080fd5b600080fd5b7f4e487b7100000000000000000000000000000000000000000000000000000000600052604160045260246000fd5b61446382614113565b810181811067ffffffffffffffff821117156144825761448161442b565b5b80604052505050565b6000614495613ffe565b90506144a1828261445a565b919050565b600067ffffffffffffffff8211156144c1576144c061442b565b5b6144ca82614113565b9050602081019050919050565b82818337600083830152505050565b60006144f96144f4846144a6565b61448b565b90508281526020810184848401111561451557614514614426565b5b6145208482856144d7565b509392505050565b600082601f83011261453d5761453c614421565b5b813561454d8482602086016144e6565b91505092915050565b6000806040838503121561456d5761456c614008565b5b600061457b85828601614255565b925050602083013567ffffffffffffffff81111561459c5761459b61400d565b5b6145a885828601614528565b9150509250929050565b6145bb81614097565b81146145c657600080fd5b50565b6000813590506145d8816145b2565b92915050565b600080604083850312156145f5576145f4614008565b5b600061460385828601614255565b9250506020614614858286016145c9565b9150509250929050565b6000806000806080858703121561463857614637614008565b5b600061464687828801614255565b945050602061465787828801614255565b9350506040614668878288016141a0565b925050606085013567ffffffffffffffff8111156146895761468861400d565b5b61469587828801614528565b91505092959194509250565b600067ffffffffffffffff8211156146bc576146bb61442b565b5b6146c582614113565b9050602081019050919050565b60006146e56146e0846146a1565b61448b565b90508281526020810184848401111561470157614700614426565b5b61470c8482856144d7565b509392505050565b600082601f83011261472957614728614421565b5b81356147398482602086016146d2565b91505092915050565b60006020828403121561475857614757614008565b5b600082013567ffffffffffffffff8111156147765761477561400d565b5b61478284828501614714565b91505092915050565b600080604083850312156147a2576147a1614008565b5b60006147b085828601614255565b92505060206147c185828601614255565b9150509250929050565b7f4e487b7100000000000000000000000000000000000000000000000000000000600052602260045260246000fd5b6000600282049050600182168061481257607f821691505b602082108103614825576148246147cb565b5b50919050565b7f4552433732313a20617070726f76616c20746f2063757272656e74206f776e6560008201527f7200000000000000000000000000000000000000000000000000000000000000602082015250565b60006148876021836140d8565b91506148928261482b565b604082019050919050565b600060208201905081810360008301526148b68161487a565b9050919050565b7f4552433732313a20617070726f76652063616c6c6572206973206e6f7420746f60008201527f6b656e206f776e6572206f7220617070726f76656420666f7220616c6c000000602082015250565b6000614919603d836140d8565b9150614924826148bd565b604082019050919050565b600060208201905081810360008301526149488161490c565b9050919050565b7f4552433732313a2063616c6c6572206973206e6f7420746f6b656e206f776e6560008201527f72206f7220617070726f76656400000000000000000000000000000000000000602082015250565b60006149ab602d836140d8565b91506149b68261494f565b604082019050919050565b600060208201905081810360008301526149da8161499e565b9050919050565b7f455243373231456e756d657261626c653a206f776e657220696e646578206f7560008201527f74206f6620626f756e6473000000000000000000000000000000000000000000602082015250565b6000614a3d602b836140d8565b9150614a48826149e1565b604082019050919050565b60006020820190508181036000830152614a6c81614a30565b9050919050565b7f416363657373436f6e74726f6c3a2063616e206f6e6c792072656e6f756e636560008201527f20726f6c657320666f722073656c660000000000000000000000000000000000602082015250565b6000614acf602f836140d8565b9150614ada82614a73565b604082019050919050565b60006020820190508181036000830152614afe81614ac2565b9050919050565b7f46756e6374696f6e206d7573742062652063616c6c6564207468726f7567682060008201527f64656c656761746563616c6c0000000000000000000000000000000000000000602082015250565b6000614b61602c836140d8565b9150614b6c82614b05565b604082019050919050565b60006020820190508181036000830152614b9081614b54565b9050919050565b7f46756e6374696f6e206d7573742062652063616c6c6564207468726f7567682060008201527f6163746976652070726f78790000000000000000000000000000000000000000602082015250565b6000614bf3602c836140d8565b9150614bfe82614b97565b604082019050919050565b60006020820190508181036000830152614c2281614be6565b9050919050565b7f455243373231456e756d657261626c653a20676c6f62616c20696e646578206f60008201527f7574206f6620626f756e64730000000000000000000000000000000000000000602082015250565b6000614c85602c836140d8565b9150614c9082614c29565b604082019050919050565b60006020820190508181036000830152614cb481614c78565b9050919050565b7f4e487b7100000000000000000000000000000000000000000000000000000000600052603260045260246000fd5b7f555550535570677261646561626c653a206d757374206e6f742062652063616c60008201527f6c6564207468726f7567682064656c656761746563616c6c0000000000000000602082015250565b6000614d466038836140d8565b9150614d5182614cea565b604082019050919050565b60006020820190508181036000830152614d7581614d39565b9050919050565b7f4552433732313a20696e76616c696420746f6b656e2049440000000000000000600082015250565b6000614db26018836140d8565b9150614dbd82614d7c565b602082019050919050565b60006020820190508181036000830152614de181614da5565b9050919050565b7f4552433732313a2061646472657373207a65726f206973206e6f74206120766160008201527f6c6964206f776e65720000000000000000000000000000000000000000000000602082015250565b6000614e446029836140d8565b9150614e4f82614de8565b604082019050919050565b60006020820190508181036000830152614e7381614e37565b9050919050565b7f496e697469616c697a61626c653a20636f6e747261637420697320616c72656160008201527f647920696e697469616c697a6564000000000000000000000000000000000000602082015250565b6000614ed6602e836140d8565b9150614ee182614e7a565b604082019050919050565b60006020820190508181036000830152614f0581614ec9565b9050919050565b6000819050919050565b600060ff82169050919050565b6000819050919050565b6000614f48614f43614f3e84614f0c565b614f23565b614f16565b9050919050565b614f5881614f2d565b82525050565b6000602082019050614f736000830184614f4f565b92915050565b7f496e697469616c697a61626c653a20636f6e747261637420697320696e69746960008201527f616c697a696e6700000000000000000000000000000000000000000000000000602082015250565b6000614fd56027836140d8565b9150614fe082614f79565b604082019050919050565b6000602082019050818103600083015261500481614fc8565b9050919050565b61501481614f16565b82525050565b600060208201905061502f600083018461500b565b92915050565b7f4552433732313a207472616e736665722066726f6d20696e636f72726563742060008201527f6f776e6572000000000000000000000000000000000000000000000000000000602082015250565b60006150916025836140d8565b915061509c82615035565b604082019050919050565b600060208201905081810360008301526150c081615084565b9050919050565b7f4552433732313a207472616e7366657220746f20746865207a65726f2061646460008201527f7265737300000000000000000000000000000000000000000000000000000000602082015250565b60006151236024836140d8565b915061512e826150c7565b604082019050919050565b6000602082019050818103600083015261515281615116565b9050919050565b60008151905061516881614331565b92915050565b60006020828403121561518457615183614008565b5b600061519284828501615159565b91505092915050565b7f45524331393637557067726164653a206e657720696d706c656d656e7461746960008201527f6f6e206973206e6f742055555053000000000000000000000000000000000000602082015250565b60006151f7602e836140d8565b91506152028261519b565b604082019050919050565b60006020820190508181036000830152615226816151ea565b9050919050565b7f45524331393637557067726164653a20756e737570706f727465642070726f7860008201527f6961626c65555549440000000000000000000000000000000000000000000000602082015250565b60006152896029836140d8565b91506152948261522d565b604082019050919050565b600060208201905081810360008301526152b88161527c565b9050919050565b7f496e697469616c697a61626c653a20636f6e7472616374206973206e6f74206960008201527f6e697469616c697a696e67000000000000000000000000000000000000000000602082015250565b600061531b602b836140d8565b9150615326826152bf565b604082019050919050565b6000602082019050818103600083015261534a8161530e565b9050919050565b7f4552433732313a20617070726f766520746f2063616c6c657200000000000000600082015250565b60006153876019836140d8565b915061539282615351565b602082019050919050565b600060208201905081810360008301526153b68161537a565b9050919050565b7f4552433732313a207472616e7366657220746f206e6f6e20455243373231526560008201527f63656976657220696d706c656d656e7465720000000000000000000000000000602082015250565b60006154196032836140d8565b9150615424826153bd565b604082019050919050565b600060208201905081810360008301526154488161540c565b9050919050565b600081905092915050565b6000615465826140cd565b61546f818561544f565b935061547f8185602086016140e9565b80840191505092915050565b6000615497828561545a565b91506154a3828461545a565b91508190509392505050565b7f45524337323155524953746f726167653a2055524920736574206f66206e6f6e60008201527f6578697374656e7420746f6b656e000000000000000000000000000000000000602082015250565b600061550b602e836140d8565b9150615516826154af565b604082019050919050565b6000602082019050818103600083015261553a816154fe565b9050919050565b60008190508160005260206000209050919050565b60006020601f8301049050919050565b600082821b905092915050565b6000600883026155a37fffffffffffffffffffffffffffffffffffffffffffffffffffffffffffffffff82615566565b6155ad8683615566565b95508019841693508086168417925050509392505050565b60006155e06155db6155d68461417f565b614f23565b61417f565b9050919050565b6000819050919050565b6155fa836155c5565b61560e615606826155e7565b848454615573565b825550505050565b600090565b615623615616565b61562e8184846155f1565b505050565b5b818110156156525761564760008261561b565b600181019050615634565b5050565b601f8211156156975761566881615541565b61567184615556565b81016020851015615680578190505b61569461568c85615556565b830182615633565b50505b505050565b600082821c905092915050565b60006156ba6000198460080261569c565b1980831691505092915050565b60006156d383836156a9565b9150826002028217905092915050565b6156ec826140cd565b67ffffffffffffffff8111156157055761570461442b565b5b61570f82546147fa565b61571a828285615656565b600060209050601f83116001811461574d576000841561573b578287015190505b61574585826156c7565b8655506157ad565b601f19841661575b86615541565b60005b828110156157835784890151825560018201915060208501945060208101905061575e565b868310156157a0578489015161579c601f8916826156a9565b8355505b6001600288020188555050505b505050505050565b7f42466c6f2046696e6765727072696e742063616e206e6f74206265207472616e60008201527f7366657272656421000000000000000000000000000000000000000000000000602082015250565b60006158116028836140d8565b915061581c826157b5565b604082019050919050565b6000602082019050818103600083015261584081615804565b9050919050565b7f416363657373436f6e74726f6c3a206163636f756e7420000000000000000000600082015250565b600061587d60178361544f565b915061588882615847565b601782019050919050565b7f206973206d697373696e6720726f6c6520000000000000000000000000000000600082015250565b60006158c960118361544f565b91506158d482615893565b601182019050919050565b60006158ea82615870565b91506158f6828561545a565b9150615901826158bc565b915061590d828461545a565b91508190509392505050565b7f455243313936373a206e657720696d706c656d656e746174696f6e206973206e60008201527f6f74206120636f6e747261637400000000000000000000000000000000000000602082015250565b6000615975602d836140d8565b915061598082615919565b604082019050919050565b600060208201905081810360008301526159a481615968565b9050919050565b7f5061757361626c653a206e6f7420706175736564000000000000000000000000600082015250565b60006159e16014836140d8565b91506159ec826159ab565b602082019050919050565b60006020820190508181036000830152615a10816159d4565b9050919050565b7f5061757361626c653a2070617573656400000000000000000000000000000000600082015250565b6000615a4d6010836140d8565b9150615a5882615a17565b602082019050919050565b60006020820190508181036000830152615a7c81615a40565b9050919050565b600081519050919050565b600082825260208201905092915050565b6000615aaa82615a83565b615ab48185615a8e565b9350615ac48185602086016140e9565b615acd81614113565b840191505092915050565b6000608082019050615aed6000830187614214565b615afa6020830186614214565b615b0760408301856142aa565b8181036060830152615b198184615a9f565b905095945050505050565b600081519050615b338161403e565b92915050565b600060208284031215615b4f57615b4e614008565b5b6000615b5d84828501615b24565b91505092915050565b7f455243373231456e756d657261626c653a20636f6e736563757469766520747260008201527f616e7366657273206e6f7420737570706f727465640000000000000000000000602082015250565b6000615bc26035836140d8565b9150615bcd82615b66565b604082019050919050565b60006020820190508181036000830152615bf181615bb5565b9050919050565b7f4e487b7100000000000000000000000000000000000000000000000000000000600052601160045260246000fd5b6000615c328261417f565b9150615c3d8361417f565b9250828202615c4b8161417f565b91508282048414831517615c6257615c61615bf8565b5b5092915050565b6000615c748261417f565b9150615c7f8361417f565b9250828201905080821115615c9757615c96615bf8565b5b92915050565b6000615ca88261417f565b915060008203615cbb57615cba615bf8565b5b600182039050919050565b7f537472696e67733a20686578206c656e67746820696e73756666696369656e74600082015250565b6000615cfc6020836140d8565b9150615d0782615cc6565b602082019050919050565b60006020820190508181036000830152615d2b81615cef565b9050919050565b7f416464726573733a2064656c65676174652063616c6c20746f206e6f6e2d636f60008201527f6e74726163740000000000000000000000000000000000000000000000000000602082015250565b6000615d8e6026836140d8565b9150615d9982615d32565b604082019050919050565b60006020820190508181036000830152615dbd81615d81565b9050919050565b600081905092915050565b6000615dda82615a83565b615de48185615dc4565b9350615df48185602086016140e9565b80840191505092915050565b6000615e0c8284615dcf565b915081905092915050565b7f4e487b7100000000000000000000000000000000000000000000000000000000600052601260045260246000fd5b7f4552433732313a206d696e7420746f20746865207a65726f2061646472657373600082015250565b6000615e7c6020836140d8565b9150615e8782615e46565b602082019050919050565b60006020820190508181036000830152615eab81615e6f565b9050919050565b7f4552433732313a20746f6b656e20616c7265616479206d696e74656400000000600082015250565b6000615ee8601c836140d8565b9150615ef382615eb2565b602082019050919050565b60006020820190508181036000830152615f1781615edb565b9050919050565b6000615f298261417f565b9150615f348361417f565b9250828203905081811115615f4c57615f4b615bf8565b5b92915050565b7f4e487b7100000000000000000000000000000000000000000000000000000000600052603160045260246000fdfe416464726573733a206c6f772d6c6576656c2064656c65676174652063616c6c206661696c6564a26469706673582212201c24990b19d4fd33122628fb1199a69048288d7845da7c8b70d9b19e42ee722564736f6c63430008110033",
  "linkReferences": {},
  "deployedLinkReferences": {}
}